# TX-ID

A TXID (transaction ID) is a unique alphanumeric string assigned to a specific transaction in the Bitcoin blockchain. This ID acts as a unique fingerprint or identifier for a transaction and allows it to be uniquely identified.

The TXID is generated by entering the transaction data, such as sender, recipient, amount and other important information, into a hashing algorithm. This process creates a cryptographic hash function that generates a fixed length and a unique string of characters. A TXID typically consists of 64 hexadecimal characters.

TXIDs are crucial for tracking and identifying transactions in the blockchain. They serve as a reference point for proving a transaction and are often used to retrieve or verify transaction details.

---

## TX-Construction

A transaction ID (TXID) in the Bitcoin blockchain is generated by applying a cryptographic hash algorithm to the transaction data. Here is a rough overview of how a TXID is structured:

1. **Transaction data:**
  - Each Bitcoin transaction consists of various data fields, including:
    - The input information, which specifies which Bitcoin addresses the BTC come from.
    - The output information, which defines where the BTC are sent to and in what quantities.
    - Additional information such as the fee used and other metadata.
    - Creation of the hash: The transaction data is entered as input into a cryptographic hash function. Bitcoin essentially uses the SHA-256 hash function (Secure Hash Algorithm 256-bit) for this.

2. **Hash result:**
  - The hash algorithm then generates a cryptographic hash value from the transaction data. This hash value has a fixed length and is referred to as the transaction ID (TXID).

4. **Length and format:**
  - The TXID is a hexadecimal string with a length of 64 characters (or 256 bits). These characters consist of the digits 0-9 and the letters a-f.

6. **Uniqueness:**
  - The TXID is a unique identifier for a specific transaction in the blockchain. Even a slight change in the transaction data would generate a completely different hash value and therefore a completely different TXID.

## RAW Transaction Data 

- **Raw Transaction Data**
  - <font color="blue">010000000001010000000000000000000000000000000000000000000000000000000000000000ffffffff500331de0b1362696e616e63652f393939e4003b0217e5417bfabe6d6dd7ee0668dc0a277ee1cf41fa2fe9801f549c595badf710649b1b36b593ed2d4602000000000000000000b70f7300000000000000ffffffff03e08d59260000000017a914ca35b1f4d02907314852f09935b9604507f8d700870000000000000000266a24aa21a9edbfe7b90f093df4f15df23a94e4f57a2e135d6f826c96a5b91002656542b45dd300000000000000002b6a2952534b424c4f434b3a446b3ee152f27e685a81c149fe55d332a8ccd7615769aa15b1775f25004d6df70120000000000000000000000000000000000000000000000000000000000000000000000000</font>

To decode such a raw transaction, one could use various bitcoin blockchain explorers or tools that provide the functions to parse and understand such transactions. One of the tools that is commonly used is bitcoin-cli or similar bitcoin software tools.

For manual decoding, one could split the transaction into its various components:

1. Version (4 bytes): 01000000
2. Input counter (variable length, here 1 input): 01
3. Input #1
  - Vorherige Transaktions-ID: 0000000000000000000000000000000000000000000000000000000000000000
  - Output index (Vout): ffffffffff
  - Script length (variable length, here 80 bytes): 50
  - Unlocking Script: 33de0b1362696e616e63652f393939e4003b0217e5417bfabe6d6dd7ee0668dc0a277ee1cf41fa2fe9801f549c595badf710649b1b36b593ed2d4602000000000000000000b70f7300000000000000
  - Sequence number: ffffffffff
  - Output counter (variable length, here 3 outputs): 03
4. Output #1
  - Amount (Satoshi): e08d592600000000
  - Script length (variable length, here 23 bytes): 17
  - Locking Script: a914ca35b1f4d02907314852f09935b9604507f8d70087

... and so on for each output and further details of the transaction.

```json

  "txid": "2dd836ab19b31ba96f6e2acd60da8597521133bec28d817770bc20ef2622e1b1",
  "hash": "a17489516496805733c0aa1c1eb9eef0bdb6ea3cb2e453c22ce26b38a4488832",
  "version": 1,
  "size": 298,
  "vsize": 271,
  "weight": 1084,
  "locktime": 0,
  "vin": [
    {
      "coinbase": "0331de0b1362696e616e63652f393939e4003b0217e5417bfabe6d6dd7ee0668dc0a277ee1cf41fa2fe9801f549c595badf710649b1b36b593ed2d4602000000000000000000b70f7300000000000000",
      "txinwitness": [
        "0000000000000000000000000000000000000000000000000000000000000000"
      ],
      "sequence": 4294967295
    }
  ],
  "vout": [
    {
      "value": 6.43403232,
      "n": 0,
      "scriptPubKey": {
        "asm": "OP_HASH160 ca35b1f4d02907314852f09935b9604507f8d700 OP_EQUAL",
        "desc": "addr(3L8Ck6bm3sve1vJGKo6Ht2k167YKSKi8TZ)#r5plrrx5",
        "hex": "a914ca35b1f4d02907314852f09935b9604507f8d70087",
        "address": "3L8Ck6bm3sve1vJGKo6Ht2k167YKSKi8TZ",
        "type": "scripthash"
      }
    },
    {
      "value": 0.00000000,
      "n": 1,
      "scriptPubKey": {
        "asm": "OP_RETURN aa21a9edbfe7b90f093df4f15df23a94e4f57a2e135d6f826c96a5b91002656542b45dd3",
        "desc": "raw(6a24aa21a9edbfe7b90f093df4f15df23a94e4f57a2e135d6f826c96a5b91002656542b45dd3)#add4rhqz",
        "hex": "6a24aa21a9edbfe7b90f093df4f15df23a94e4f57a2e135d6f826c96a5b91002656542b45dd3",
        "type": "nulldata"
      }
    },
    {
      "value": 0.00000000,
      "n": 2,
      "scriptPubKey": {
        "asm": "OP_RETURN 52534b424c4f434b3a446b3ee152f27e685a81c149fe55d332a8ccd7615769aa15b1775f25004d6df7",
        "desc": "raw(6a2952534b424c4f434b3a446b3ee152f27e685a81c149fe55d332a8ccd7615769aa15b1775f25004d6df7)#dlyj66y5",
        "hex": "6a2952534b424c4f434b3a446b3ee152f27e685a81c149fe55d332a8ccd7615769aa15b1775f25004d6df7",
        "type": "nulldata"
      }
    }
  ]
}

```


- **Compressed Transaction Data**
  - <font color="orange">2dd836ab19b31ba96f6e2acd60da8597521133bec28d817770bc20ef2622e1b1</font>

  <span style="color: blue;">Dieser Text ist blau</span>
